{
  "contractName": "RCDYVest",
  "abi": [
    {
      "inputs": [
        {
          "internalType": "address",
          "name": "_rcdy",
          "type": "address"
        },
        {
          "internalType": "address",
          "name": "_rc3",
          "type": "address"
        },
        {
          "internalType": "uint256[]",
          "name": "_ids",
          "type": "uint256[]"
        },
        {
          "internalType": "uint256[]",
          "name": "_bonus",
          "type": "uint256[]"
        }
      ],
      "stateMutability": "nonpayable",
      "type": "constructor"
    },
    {
      "anonymous": false,
      "inputs": [
        {
          "indexed": true,
          "internalType": "address",
          "name": "previousOwner",
          "type": "address"
        },
        {
          "indexed": true,
          "internalType": "address",
          "name": "newOwner",
          "type": "address"
        }
      ],
      "name": "OwnershipTransferred",
      "type": "event"
    },
    {
      "anonymous": false,
      "inputs": [
        {
          "indexed": false,
          "internalType": "uint256",
          "name": "timestamp",
          "type": "uint256"
        },
        {
          "indexed": false,
          "internalType": "uint256",
          "name": "duration",
          "type": "uint256"
        }
      ],
      "name": "Started",
      "type": "event"
    },
    {
      "anonymous": false,
      "inputs": [
        {
          "indexed": false,
          "internalType": "address",
          "name": "sender",
          "type": "address"
        },
        {
          "indexed": false,
          "internalType": "uint256",
          "name": "releasedAmount",
          "type": "uint256"
        }
      ],
      "name": "Withdrawn",
      "type": "event"
    },
    {
      "inputs": [
        {
          "internalType": "uint256",
          "name": "",
          "type": "uint256"
        }
      ],
      "name": "ids",
      "outputs": [
        {
          "internalType": "uint256",
          "name": "",
          "type": "uint256"
        }
      ],
      "stateMutability": "view",
      "type": "function"
    },
    {
      "inputs": [],
      "name": "owner",
      "outputs": [
        {
          "internalType": "address",
          "name": "",
          "type": "address"
        }
      ],
      "stateMutability": "view",
      "type": "function"
    },
    {
      "inputs": [],
      "name": "renounceOwnership",
      "outputs": [],
      "stateMutability": "nonpayable",
      "type": "function"
    },
    {
      "inputs": [
        {
          "internalType": "address",
          "name": "newOwner",
          "type": "address"
        }
      ],
      "name": "transferOwnership",
      "outputs": [],
      "stateMutability": "nonpayable",
      "type": "function"
    },
    {
      "inputs": [
        {
          "internalType": "uint256",
          "name": "_duration",
          "type": "uint256"
        }
      ],
      "name": "startVesting",
      "outputs": [
        {
          "internalType": "bool",
          "name": "",
          "type": "bool"
        }
      ],
      "stateMutability": "nonpayable",
      "type": "function"
    },
    {
      "inputs": [
        {
          "internalType": "uint256",
          "name": "_id",
          "type": "uint256"
        }
      ],
      "name": "withdraw",
      "outputs": [
        {
          "internalType": "bool",
          "name": "",
          "type": "bool"
        }
      ],
      "stateMutability": "nonpayable",
      "type": "function"
    },
    {
      "inputs": [
        {
          "internalType": "uint256",
          "name": "_id",
          "type": "uint256"
        }
      ],
      "name": "getPending",
      "outputs": [
        {
          "internalType": "uint256",
          "name": "pending_vest",
          "type": "uint256"
        }
      ],
      "stateMutability": "view",
      "type": "function"
    },
    {
      "inputs": [
        {
          "internalType": "uint256",
          "name": "_id",
          "type": "uint256"
        }
      ],
      "name": "getAvailable",
      "outputs": [
        {
          "internalType": "uint256",
          "name": "token_released",
          "type": "uint256"
        }
      ],
      "stateMutability": "view",
      "type": "function"
    }
  ],
  "bytecode": "0x60806040523480156200001157600080fd5b5060405162001a9238038062001a928339818101604052810190620000379190620004c8565b600062000049620003f060201b60201c565b9050806000806101000a81548173ffffffffffffffffffffffffffffffffffffffff021916908373ffffffffffffffffffffffffffffffffffffffff1602179055508073ffffffffffffffffffffffffffffffffffffffff16600073ffffffffffffffffffffffffffffffffffffffff167f8be0079c531659141344cd1fd0a4f28419497f9722a3daafe3b4186f6b6457e060405160405180910390a350600073ffffffffffffffffffffffffffffffffffffffff168473ffffffffffffffffffffffffffffffffffffffff1614156200015a576040517f08c379a00000000000000000000000000000000000000000000000000000000081526004016200015190620005fd565b60405180910390fd5b600073ffffffffffffffffffffffffffffffffffffffff168373ffffffffffffffffffffffffffffffffffffffff161415620001cd576040517f08c379a0000000000000000000000000000000000000000000000000000000008152600401620001c4906200061f565b60405180910390fd5b805182511462000214576040517f08c379a00000000000000000000000000000000000000000000000000000000081526004016200020b90620005db565b60405180910390fd5b60005b8251811015620003635760038382815181106200025d577f4e487b7100000000000000000000000000000000000000000000000000000000600052603260045260246000fd5b602002602001015190806001815401808255809150506001900390600052602060002001600090919091909150556040518060400160405280838381518110620002d0577f4e487b7100000000000000000000000000000000000000000000000000000000600052603260045260246000fd5b6020026020010151815260200160008152506006600085848151811062000320577f4e487b7100000000000000000000000000000000000000000000000000000000600052603260045260246000fd5b60200260200101518152602001908152602001600020600082015181600001556020820151816001015590505080806200035a906200071e565b91505062000217565b5083600160006101000a81548173ffffffffffffffffffffffffffffffffffffffff021916908373ffffffffffffffffffffffffffffffffffffffff16021790555082600260006101000a81548173ffffffffffffffffffffffffffffffffffffffff021916908373ffffffffffffffffffffffffffffffffffffffff16021790555050505050620008fc565b600033905090565b60006200040f62000409846200066a565b62000641565b905080838252602082019050828560208602820111156200042f57600080fd5b60005b85811015620004635781620004488882620004b1565b84526020840193506020830192505060018101905062000432565b5050509392505050565b6000815190506200047e81620008c8565b92915050565b600082601f8301126200049657600080fd5b8151620004a8848260208601620003f8565b91505092915050565b600081519050620004c281620008e2565b92915050565b60008060008060808587031215620004df57600080fd5b6000620004ef878288016200046d565b945050602062000502878288016200046d565b935050604085015167ffffffffffffffff8111156200052057600080fd5b6200052e8782880162000484565b925050606085015167ffffffffffffffff8111156200054c57600080fd5b6200055a8782880162000484565b91505092959194509250565b600062000575602e8362000699565b91506200058282620007db565b604082019050919050565b60006200059c60228362000699565b9150620005a9826200082a565b604082019050919050565b6000620005c360258362000699565b9150620005d08262000879565b604082019050919050565b60006020820190508181036000830152620005f68162000566565b9050919050565b6000602082019050818103600083015262000618816200058d565b9050919050565b600060208201905081810360008301526200063a81620005b4565b9050919050565b60006200064d62000660565b90506200065b8282620006e8565b919050565b6000604051905090565b600067ffffffffffffffff8211156200068857620006876200079b565b5b602082029050602081019050919050565b600082825260208201905092915050565b6000620006b782620006be565b9050919050565b600073ffffffffffffffffffffffffffffffffffffffff82169050919050565b6000819050919050565b620006f382620007ca565b810181811067ffffffffffffffff821117156200071557620007146200079b565b5b80604052505050565b60006200072b82620006de565b91507fffffffffffffffffffffffffffffffffffffffffffffffffffffffffffffffff8214156200076157620007606200076c565b5b600182019050919050565b7f4e487b7100000000000000000000000000000000000000000000000000000000600052601160045260246000fd5b7f4e487b7100000000000000000000000000000000000000000000000000000000600052604160045260246000fd5b6000601f19601f8301169050919050565b7f69647320616e6420626f6e757320617272617973206d7573742068617665207460008201527f68652073616d65206c656e677468000000000000000000000000000000000000602082015250565b7f63616e6e6f7420696e707574207a65726f206164647265737320666f7220726360008201527f6479000000000000000000000000000000000000000000000000000000000000602082015250565b7f63616e6e6f7420696e70757420746865207a65726f206164647265737320666f60008201527f7220726333000000000000000000000000000000000000000000000000000000602082015250565b620008d381620006aa565b8114620008df57600080fd5b50565b620008ed81620006de565b8114620008f957600080fd5b50565b611186806200090c6000396000f3fe608060405234801561001057600080fd5b50600436106100885760003560e01c80638da5cb5b1161005b5780638da5cb5b146101275780639f09355214610145578063f2fde38b14610175578063fac333ac1461019157610088565b80632e1a7d4d1461008d5780633a4dc2fb146100bd578063715018a6146100ed57806384f89a93146100f7575b600080fd5b6100a760048036038101906100a29190610b4c565b6101c1565b6040516100b49190610cb8565b60405180910390f35b6100d760048036038101906100d29190610b4c565b610268565b6040516100e49190610cb8565b60405180910390f35b6100f5610391565b005b610111600480360381019061010c9190610b4c565b6104cb565b60405161011e9190610d93565b60405180910390f35b61012f610517565b60405161013c9190610c74565b60405180910390f35b61015f600480360381019061015a9190610b4c565b610540565b60405161016c9190610d93565b60405180910390f35b61018f600480360381019061018a9190610ad1565b610557565b005b6101ab60048036038101906101a69190610b4c565b610700565b6040516101b89190610d93565b60405180910390f35b6000806101cd83610724565b905060008111610212576040517f08c379a000000000000000000000000000000000000000000000000000000000815260040161020990610d73565b60405180910390fd5b61021c83826107f0565b426005541161025e5760006006600085815260200190815260200160002060010181905550600060066000858152602001908152602001600020600001819055505b6001915050919050565b6000610272610a75565b73ffffffffffffffffffffffffffffffffffffffff16610290610517565b73ffffffffffffffffffffffffffffffffffffffff16146102e6576040517f08c379a00000000000000000000000000000000000000000000000000000000081526004016102dd90610d53565b60405180910390fd5b60006004541461032b576040517f08c379a000000000000000000000000000000000000000000000000000000000815260040161032290610d33565b60405180910390fd5b42600481905550814261033e9190610de8565b6005819055507f87ac41d581680567c1ef44614ddfa5522f853ea15b877693a35b1e4157cc309d4283426103729190610de8565b604051610380929190610dae565b60405180910390a160019050919050565b610399610a75565b73ffffffffffffffffffffffffffffffffffffffff166103b7610517565b73ffffffffffffffffffffffffffffffffffffffff161461040d576040517f08c379a000000000000000000000000000000000000000000000000000000000815260040161040490610d53565b60405180910390fd5b600073ffffffffffffffffffffffffffffffffffffffff1660008054906101000a900473ffffffffffffffffffffffffffffffffffffffff1673ffffffffffffffffffffffffffffffffffffffff167f8be0079c531659141344cd1fd0a4f28419497f9722a3daafe3b4186f6b6457e060405160405180910390a360008060006101000a81548173ffffffffffffffffffffffffffffffffffffffff021916908373ffffffffffffffffffffffffffffffffffffffff160217905550565b60008060066000848152602001908152602001600020600101549050600060066000858152602001908152602001600020600001549050818161050e9190610ec9565b92505050919050565b60008060009054906101000a900473ffffffffffffffffffffffffffffffffffffffff16905090565b60008061054c83610724565b905080915050919050565b61055f610a75565b73ffffffffffffffffffffffffffffffffffffffff1661057d610517565b73ffffffffffffffffffffffffffffffffffffffff16146105d3576040517f08c379a00000000000000000000000000000000000000000000000000000000081526004016105ca90610d53565b60405180910390fd5b600073ffffffffffffffffffffffffffffffffffffffff168173ffffffffffffffffffffffffffffffffffffffff161415610643576040517f08c379a000000000000000000000000000000000000000000000000000000000815260040161063a90610d13565b60405180910390fd5b8073ffffffffffffffffffffffffffffffffffffffff1660008054906101000a900473ffffffffffffffffffffffffffffffffffffffff1673ffffffffffffffffffffffffffffffffffffffff167f8be0079c531659141344cd1fd0a4f28419497f9722a3daafe3b4186f6b6457e060405160405180910390a3806000806101000a81548173ffffffffffffffffffffffffffffffffffffffff021916908373ffffffffffffffffffffffffffffffffffffffff16021790555050565b6003818154811061071057600080fd5b906000526020600020016000915090505481565b600080600554905060006004549050600060066000868152602001908152602001600020600101549050600060066000878152602001908152602001600020600001549050600084421061077b57606490506107bb565b6103e8848661078a9190610ec9565b6107949190610e6f565b620186a085426107a49190610ec9565b6107ae9190610e6f565b6107b89190610e3e565b90505b6000606482846107cb9190610e6f565b6107d59190610e3e565b905083816107e39190610ec9565b9650505050505050919050565b6000600260009054906101000a900473ffffffffffffffffffffffffffffffffffffffff1673ffffffffffffffffffffffffffffffffffffffff16636352211e846040518263ffffffff1660e01b815260040161084d9190610d93565b60206040518083038186803b15801561086557600080fd5b505afa158015610879573d6000803e3d6000fd5b505050506040513d601f19601f8201168201806040525081019061089d9190610afa565b90508073ffffffffffffffffffffffffffffffffffffffff163373ffffffffffffffffffffffffffffffffffffffff161461090d576040517f08c379a000000000000000000000000000000000000000000000000000000000815260040161090490610cd3565b60405180910390fd5b81600660008581526020019081526020016000206001015461092f9190610de8565b6006600085815260200190815260200160002060010181905550600160009054906101000a900473ffffffffffffffffffffffffffffffffffffffff1673ffffffffffffffffffffffffffffffffffffffff1663a9059cbb33846040518363ffffffff1660e01b81526004016109a6929190610c8f565b602060405180830381600087803b1580156109c057600080fd5b505af11580156109d4573d6000803e3d6000fd5b505050506040513d601f19601f820116820180604052508101906109f89190610b23565b610a37576040517f08c379a0000000000000000000000000000000000000000000000000000000008152600401610a2e90610cf3565b60405180910390fd5b7f7084f5476618d8e60b11ef0d7d3f06914655adb8793e28ff7f018d4c76d505d53383604051610a68929190610c8f565b60405180910390a1505050565b600033905090565b600081359050610a8c8161110b565b92915050565b600081519050610aa18161110b565b92915050565b600081519050610ab681611122565b92915050565b600081359050610acb81611139565b92915050565b600060208284031215610ae357600080fd5b6000610af184828501610a7d565b91505092915050565b600060208284031215610b0c57600080fd5b6000610b1a84828501610a92565b91505092915050565b600060208284031215610b3557600080fd5b6000610b4384828501610aa7565b91505092915050565b600060208284031215610b5e57600080fd5b6000610b6c84828501610abc565b91505092915050565b610b7e81610efd565b82525050565b610b8d81610f0f565b82525050565b6000610ba0601f83610dd7565b9150610bab82610fa3565b602082019050919050565b6000610bc3602c83610dd7565b9150610bce82610fcc565b604082019050919050565b6000610be6602683610dd7565b9150610bf18261101b565b604082019050919050565b6000610c09601783610dd7565b9150610c148261106a565b602082019050919050565b6000610c2c602083610dd7565b9150610c3782611093565b602082019050919050565b6000610c4f602383610dd7565b9150610c5a826110bc565b604082019050919050565b610c6e81610f3b565b82525050565b6000602082019050610c896000830184610b75565b92915050565b6000604082019050610ca46000830185610b75565b610cb16020830184610c65565b9392505050565b6000602082019050610ccd6000830184610b84565b92915050565b60006020820190508181036000830152610cec81610b93565b9050919050565b60006020820190508181036000830152610d0c81610bb6565b9050919050565b60006020820190508181036000830152610d2c81610bd9565b9050919050565b60006020820190508181036000830152610d4c81610bfc565b9050919050565b60006020820190508181036000830152610d6c81610c1f565b9050919050565b60006020820190508181036000830152610d8c81610c42565b9050919050565b6000602082019050610da86000830184610c65565b92915050565b6000604082019050610dc36000830185610c65565b610dd06020830184610c65565b9392505050565b600082825260208201905092915050565b6000610df382610f3b565b9150610dfe83610f3b565b9250827fffffffffffffffffffffffffffffffffffffffffffffffffffffffffffffffff03821115610e3357610e32610f45565b5b828201905092915050565b6000610e4982610f3b565b9150610e5483610f3b565b925082610e6457610e63610f74565b5b828204905092915050565b6000610e7a82610f3b565b9150610e8583610f3b565b9250817fffffffffffffffffffffffffffffffffffffffffffffffffffffffffffffffff0483118215151615610ebe57610ebd610f45565b5b828202905092915050565b6000610ed482610f3b565b9150610edf83610f3b565b925082821015610ef257610ef1610f45565b5b828203905092915050565b6000610f0882610f1b565b9050919050565b60008115159050919050565b600073ffffffffffffffffffffffffffffffffffffffff82169050919050565b6000819050919050565b7f4e487b7100000000000000000000000000000000000000000000000000000000600052601160045260246000fd5b7f4e487b7100000000000000000000000000000000000000000000000000000000600052601260045260246000fd5b7f6f6e6c79206f776e6572206f6620746f6b656e2069642063616e2063616c6c00600082015250565b7f7761697420666f72206d6f726520746f6b656e7320746f20626520616464656460008201527f20746f20636f6e74726163740000000000000000000000000000000000000000602082015250565b7f4f776e61626c653a206e6577206f776e657220697320746865207a65726f206160008201527f6464726573730000000000000000000000000000000000000000000000000000602082015250565b7f76657374696e6720616c72656164792073746172746564000000000000000000600082015250565b7f4f776e61626c653a2063616c6c6572206973206e6f7420746865206f776e6572600082015250565b7f796f7520646f206e6f74206861766520616e7920626f6e757320617661696c6160008201527f626c650000000000000000000000000000000000000000000000000000000000602082015250565b61111481610efd565b811461111f57600080fd5b50565b61112b81610f0f565b811461113657600080fd5b50565b61114281610f3b565b811461114d57600080fd5b5056fea26469706673582212205f8227950d427de20fb7896b82738244361774497b0763ba4719d4e29ee05b3864736f6c63430008030033",
  "immutableReferences": {},
  "source": "//\"SPDX-License-Identifier: UNLICENSED\"\n\npragma solidity 0.8.3;\n\nimport \"@openzeppelin/contracts/token/ERC20/IERC20.sol\";\nimport \"@openzeppelin/contracts/access/Ownable.sol\";\n\ninterface IRC3 {\n    function ownerOf(uint256 tokenId) external view returns (address);\n}\n\ncontract RCDYVest is Ownable {\n\n    IERC20 private rcdy;\n    IRC3 private rc3;\n    uint[] public ids;\n    uint private start;\n    uint private duration;\n\n    struct Slot {\n        uint bonus;\n        uint withdrawn;\n    }\n    \n    mapping(uint => Slot) private _slots;\n\n    event Started(uint timestamp, uint duration);\n    event Withdrawn(address sender, uint releasedAmount);\n\n    constructor(address _rcdy, address _rc3, uint[] memory _ids, uint[] memory _bonus) {\n\n        require(_rcdy != address(0), \"cannot input zero address for rcdy\");\n        require(_rc3 != address(0), \"cannot input the zero address for rc3\");\n        require(_ids.length == _bonus.length, 'ids and bonus arrays must have the same length');\n        \n        for(uint i = 0; i < _ids.length; i++) {\n            ids.push(_ids[i]);\n            _slots[_ids[i]] = Slot({bonus: _bonus[i], withdrawn: 0});\n        }\n\n        rcdy = IERC20(_rcdy);\n        rc3 = IRC3(_rc3);\n    }\n\n    function startVesting(uint _duration) external onlyOwner() returns(bool) {\n\n        require(start == 0, \"vesting already started\");\n\n        start = block.timestamp;\n        duration = block.timestamp + _duration; \n\n        emit Started(block.timestamp, block.timestamp + _duration);\n        return true;\n    }\n\n    function withdraw(uint _id) external returns(bool) {\n        \n        uint released = _calculateReleasedAmount(_id);\n        require(released > 0, \"you do not have any bonus available\");\n        \n        _withdraw(_id, released);\n        \n        if (duration <= block.timestamp) {\n            _slots[_id].withdrawn = 0;\n            _slots[_id].bonus = 0;\n        }\n        return true;\n    }\n \n    function getPending(uint _id) external view returns(uint pending_vest) {\n        \n        uint taken = _slots[_id].withdrawn;\n        uint bonus = _slots[_id].bonus;\n        \n        return bonus - taken;\n    }\n     \n    function getAvailable(uint _id) external view returns(uint token_released) {\n        \n        uint available = _calculateReleasedAmount(_id);\n        \n        return available;\n    } \n\n    function _withdraw(uint _id, uint _releasedAmount) internal {\n        \n        address currentOwner = rc3.ownerOf(_id);\n        require(msg.sender == currentOwner, \"only owner of token id can call\");\n        \n        _slots[_id].withdrawn = _slots[_id].withdrawn + _releasedAmount;\n        require(rcdy.transfer(msg.sender, _releasedAmount), \"wait for more tokens to be added to contract\");\n    \n        emit Withdrawn(msg.sender, _releasedAmount);\n    }\n\n    function _calculateReleasedAmount(uint _id) internal view returns(uint) {\n\n        uint release = duration;\n        uint init = start;\n        uint withdrawn = _slots[_id].withdrawn;\n        uint bonus = _slots[_id].bonus;\n        uint releasedPct;\n        \n        if (block.timestamp >= release) releasedPct = 100;\n        else releasedPct = ((block.timestamp - init) * 100000) / ((release - init) * 1000);\n        \n        uint released = (bonus * releasedPct) / 100;\n        return released - withdrawn;\n    }\n\n}",
  "sourcePath": "/Users/hendobox/Desktop/THE GRIND/Blockchain Dev/gitrepo/Vesting/contracts/RCDYVest.sol",
  "compiler": {
    "name": "solc",
    "version": "0.8.3+commit.8d00100c.Emscripten.clang"
  },
  "schemaVersion": "3.3.3",
  "updatedAt": "2021-04-29T21:26:54.882Z",
  "devdoc": {
    "kind": "dev",
    "methods": {
      "owner()": {
        "details": "Returns the address of the current owner."
      },
      "renounceOwnership()": {
        "details": "Leaves the contract without owner. It will not be possible to call `onlyOwner` functions anymore. Can only be called by the current owner. NOTE: Renouncing ownership will leave the contract without an owner, thereby removing any functionality that is only available to the owner."
      },
      "transferOwnership(address)": {
        "details": "Transfers ownership of the contract to a new account (`newOwner`). Can only be called by the current owner."
      }
    },
    "version": 1
  },
  "userdoc": {
    "kind": "user",
    "methods": {},
    "version": 1
  }
}